{
  "_format": "hh-sol-artifact-1",
  "contractName": "RealEstateDapp",
  "sourceName": "contracts/PropertiesSmartContract.sol",
  "abi": [
    {
      "inputs": [],
      "stateMutability": "nonpayable",
      "type": "constructor"
    },
    {
      "anonymous": false,
      "inputs": [
        {
          "indexed": true,
          "internalType": "address",
          "name": "owner",
          "type": "address"
        },
        {
          "indexed": true,
          "internalType": "address",
          "name": "approved",
          "type": "address"
        },
        {
          "indexed": true,
          "internalType": "uint256",
          "name": "tokenId",
          "type": "uint256"
        }
      ],
      "name": "Approval",
      "type": "event"
    },
    {
      "anonymous": false,
      "inputs": [
        {
          "indexed": true,
          "internalType": "address",
          "name": "owner",
          "type": "address"
        },
        {
          "indexed": true,
          "internalType": "address",
          "name": "operator",
          "type": "address"
        },
        {
          "indexed": false,
          "internalType": "bool",
          "name": "approved",
          "type": "bool"
        }
      ],
      "name": "ApprovalForAll",
      "type": "event"
    },
    {
      "anonymous": false,
      "inputs": [
        {
          "indexed": true,
          "internalType": "uint256",
          "name": "tokenId",
          "type": "uint256"
        },
        {
          "indexed": false,
          "internalType": "address",
          "name": "seller",
          "type": "address"
        },
        {
          "indexed": false,
          "internalType": "uint256",
          "name": "price",
          "type": "uint256"
        },
        {
          "indexed": false,
          "internalType": "bool",
          "name": "currentlyListed",
          "type": "bool"
        }
      ],
      "name": "ListingSuccess",
      "type": "event"
    },
    {
      "anonymous": false,
      "inputs": [
        {
          "indexed": true,
          "internalType": "address",
          "name": "from",
          "type": "address"
        },
        {
          "indexed": true,
          "internalType": "address",
          "name": "to",
          "type": "address"
        },
        {
          "indexed": true,
          "internalType": "uint256",
          "name": "tokenId",
          "type": "uint256"
        }
      ],
      "name": "Transfer",
      "type": "event"
    },
    {
      "inputs": [
        {
          "internalType": "address",
          "name": "to",
          "type": "address"
        },
        {
          "internalType": "uint256",
          "name": "tokenId",
          "type": "uint256"
        }
      ],
      "name": "approve",
      "outputs": [],
      "stateMutability": "nonpayable",
      "type": "function"
    },
    {
      "inputs": [
        {
          "internalType": "address",
          "name": "owner",
          "type": "address"
        }
      ],
      "name": "balanceOf",
      "outputs": [
        {
          "internalType": "uint256",
          "name": "",
          "type": "uint256"
        }
      ],
      "stateMutability": "view",
      "type": "function"
    },
    {
      "inputs": [
        {
          "internalType": "string",
          "name": "tokenURI",
          "type": "string"
        },
        {
          "internalType": "uint256",
          "name": "price",
          "type": "uint256"
        }
      ],
      "name": "createPropListing",
      "outputs": [
        {
          "internalType": "uint256",
          "name": "",
          "type": "uint256"
        }
      ],
      "stateMutability": "payable",
      "type": "function"
    },
    {
      "inputs": [],
      "name": "getAllListings",
      "outputs": [
        {
          "components": [
            {
              "internalType": "uint256",
              "name": "tokenId",
              "type": "uint256"
            },
            {
              "internalType": "address payable",
              "name": "seller",
              "type": "address"
            },
            {
              "internalType": "uint256",
              "name": "price",
              "type": "uint256"
            },
            {
              "internalType": "bool",
              "name": "currentlyListed",
              "type": "bool"
            }
          ],
          "internalType": "struct RealEstateDapp.PropListing[]",
          "name": "",
          "type": "tuple[]"
        }
      ],
      "stateMutability": "view",
      "type": "function"
    },
    {
      "inputs": [
        {
          "internalType": "uint256",
          "name": "tokenId",
          "type": "uint256"
        }
      ],
      "name": "getApproved",
      "outputs": [
        {
          "internalType": "address",
          "name": "",
          "type": "address"
        }
      ],
      "stateMutability": "view",
      "type": "function"
    },
    {
      "inputs": [],
      "name": "getPrice",
      "outputs": [
        {
          "internalType": "uint256",
          "name": "",
          "type": "uint256"
        }
      ],
      "stateMutability": "view",
      "type": "function"
    },
    {
      "inputs": [],
      "name": "getUserInvestments",
      "outputs": [
        {
          "components": [
            {
              "internalType": "uint256",
              "name": "tokenId",
              "type": "uint256"
            },
            {
              "internalType": "address payable",
              "name": "seller",
              "type": "address"
            },
            {
              "internalType": "uint256",
              "name": "price",
              "type": "uint256"
            },
            {
              "internalType": "bool",
              "name": "currentlyListed",
              "type": "bool"
            }
          ],
          "internalType": "struct RealEstateDapp.PropListing[]",
          "name": "",
          "type": "tuple[]"
        }
      ],
      "stateMutability": "view",
      "type": "function"
    },
    {
      "inputs": [
        {
          "internalType": "address",
          "name": "owner",
          "type": "address"
        },
        {
          "internalType": "address",
          "name": "operator",
          "type": "address"
        }
      ],
      "name": "isApprovedForAll",
      "outputs": [
        {
          "internalType": "bool",
          "name": "",
          "type": "bool"
        }
      ],
      "stateMutability": "view",
      "type": "function"
    },
    {
      "inputs": [],
      "name": "name",
      "outputs": [
        {
          "internalType": "string",
          "name": "",
          "type": "string"
        }
      ],
      "stateMutability": "view",
      "type": "function"
    },
    {
      "inputs": [
        {
          "internalType": "uint256",
          "name": "tokenId",
          "type": "uint256"
        }
      ],
      "name": "ownerOf",
      "outputs": [
        {
          "internalType": "address",
          "name": "",
          "type": "address"
        }
      ],
      "stateMutability": "view",
      "type": "function"
    },
    {
      "inputs": [
        {
          "internalType": "uint256",
          "name": "tokenId",
          "type": "uint256"
        }
      ],
      "name": "propertySale",
      "outputs": [],
      "stateMutability": "payable",
      "type": "function"
    },
    {
      "inputs": [
        {
          "internalType": "address",
          "name": "from",
          "type": "address"
        },
        {
          "internalType": "address",
          "name": "to",
          "type": "address"
        },
        {
          "internalType": "uint256",
          "name": "tokenId",
          "type": "uint256"
        }
      ],
      "name": "safeTransferFrom",
      "outputs": [],
      "stateMutability": "nonpayable",
      "type": "function"
    },
    {
      "inputs": [
        {
          "internalType": "address",
          "name": "from",
          "type": "address"
        },
        {
          "internalType": "address",
          "name": "to",
          "type": "address"
        },
        {
          "internalType": "uint256",
          "name": "tokenId",
          "type": "uint256"
        },
        {
          "internalType": "bytes",
          "name": "data",
          "type": "bytes"
        }
      ],
      "name": "safeTransferFrom",
      "outputs": [],
      "stateMutability": "nonpayable",
      "type": "function"
    },
    {
      "inputs": [
        {
          "internalType": "address",
          "name": "operator",
          "type": "address"
        },
        {
          "internalType": "bool",
          "name": "approved",
          "type": "bool"
        }
      ],
      "name": "setApprovalForAll",
      "outputs": [],
      "stateMutability": "nonpayable",
      "type": "function"
    },
    {
      "inputs": [
        {
          "internalType": "bytes4",
          "name": "interfaceId",
          "type": "bytes4"
        }
      ],
      "name": "supportsInterface",
      "outputs": [
        {
          "internalType": "bool",
          "name": "",
          "type": "bool"
        }
      ],
      "stateMutability": "view",
      "type": "function"
    },
    {
      "inputs": [],
      "name": "symbol",
      "outputs": [
        {
          "internalType": "string",
          "name": "",
          "type": "string"
        }
      ],
      "stateMutability": "view",
      "type": "function"
    },
    {
      "inputs": [
        {
          "internalType": "uint256",
          "name": "tokenId",
          "type": "uint256"
        }
      ],
      "name": "tokenURI",
      "outputs": [
        {
          "internalType": "string",
          "name": "",
          "type": "string"
        }
      ],
      "stateMutability": "view",
      "type": "function"
    },
    {
      "inputs": [
        {
          "internalType": "address",
          "name": "from",
          "type": "address"
        },
        {
          "internalType": "address",
          "name": "to",
          "type": "address"
        },
        {
          "internalType": "uint256",
          "name": "tokenId",
          "type": "uint256"
        }
      ],
      "name": "transferFrom",
      "outputs": [],
      "stateMutability": "nonpayable",
      "type": "function"
    },
    {
      "inputs": [
        {
          "internalType": "uint256",
          "name": "_id",
          "type": "uint256"
        },
        {
          "internalType": "uint256",
          "name": "_listPrice",
          "type": "uint256"
        }
      ],
      "name": "updateCost",
      "outputs": [
        {
          "internalType": "bool",
          "name": "",
          "type": "bool"
        }
      ],
      "stateMutability": "payable",
      "type": "function"
    },
    {
      "inputs": [
        {
          "internalType": "uint256",
          "name": "_id",
          "type": "uint256"
        },
        {
          "internalType": "bool",
          "name": "_currentlyListed",
          "type": "bool"
        }
      ],
      "name": "updateCurrentlyListed",
      "outputs": [
        {
          "internalType": "bool",
          "name": "",
          "type": "bool"
        }
      ],
      "stateMutability": "payable",
      "type": "function"
    }
  ],
  "bytecode": "0x6080604052600980546001600160a01b0319163317905566038d7ea4c68000600a553480156200002e57600080fd5b50604080518082018252600e81526d05265616c457374617465446170760941b60208083019182528351808501909452600684526505245444150560d41b9084015281519192916200008391600091620000b4565b50805162000099906001906020840190620000b4565b5050600980546001600160a01b031916331790555062000197565b828054620000c2906200015a565b90600052602060002090601f016020900481019282620000e6576000855562000131565b82601f106200010157805160ff191683800117855562000131565b8280016001018555821562000131579182015b828111156200013157825182559160200191906001019062000114565b506200013f92915062000143565b5090565b5b808211156200013f576000815560010162000144565b600181811c908216806200016f57607f821691505b602082108114156200019157634e487b7160e01b600052602260045260246000fd5b50919050565b611e5380620001a76000396000f3fe60806040526004361061011f5760003560e01c806395d89b41116100a0578063ae73ccec11610064578063ae73ccec1461033c578063b88d4fde14610351578063c87b56dd14610371578063d887199114610391578063e985e9c5146103a457600080fd5b806395d89b41146102bd57806398d5fdca146102d2578063a22cb465146102e7578063a63d45e514610307578063a91ac0291461032957600080fd5b806335314461116100e757806335314461146101f557806342842e0e1461021b57806359ce1df11461023b5780636352211e1461026f57806370a082311461028f57600080fd5b806301ffc9a71461012457806306fdde0314610159578063081812fc1461017b578063095ea7b3146101b357806323b872dd146101d5575b600080fd5b34801561013057600080fd5b5061014461013f366004611a49565b6103ed565b60405190151581526020015b60405180910390f35b34801561016557600080fd5b5061016e61043f565b6040516101509190611c39565b34801561018757600080fd5b5061019b610196366004611ad7565b6104d1565b6040516001600160a01b039091168152602001610150565b3480156101bf57600080fd5b506101d36101ce366004611a20565b6104f8565b005b3480156101e157600080fd5b506101d36101f0366004611943565b610613565b610144610203366004611b11565b6000918252600b602052604090912060020155600190565b34801561022757600080fd5b506101d3610236366004611943565b610644565b610144610249366004611aef565b6000918252600b6020526040909120600301805460ff1916911515919091179055600190565b34801561027b57600080fd5b5061019b61028a366004611ad7565b61065f565b34801561029b57600080fd5b506102af6102aa3660046118f7565b6106bf565b604051908152602001610150565b3480156102c957600080fd5b5061016e610745565b3480156102de57600080fd5b50600a546102af565b3480156102f357600080fd5b506101d36103023660046119f7565b610754565b34801561031357600080fd5b5061031c610763565b6040516101509190611bca565b6102af610337366004611a81565b610949565b34801561034857600080fd5b5061031c61098b565b34801561035d57600080fd5b506101d361036c36600461197e565b610add565b34801561037d57600080fd5b5061016e61038c366004611ad7565b610b15565b6101d361039f366004611ad7565b610c26565b3480156103b057600080fd5b506101446103bf366004611911565b6001600160a01b03918216600090815260056020908152604080832093909416825291909152205460ff1690565b60006001600160e01b031982166380ac58cd60e01b148061041e57506001600160e01b03198216635b5e139f60e01b145b8061043957506301ffc9a760e01b6001600160e01b03198316145b92915050565b60606000805461044e90611d5b565b80601f016020809104026020016040519081016040528092919081815260200182805461047a90611d5b565b80156104c75780601f1061049c576101008083540402835291602001916104c7565b820191906000526020600020905b8154815290600101906020018083116104aa57829003601f168201915b5050505050905090565b60006104dc82610d7c565b506000908152600460205260409020546001600160a01b031690565b60006105038261065f565b9050806001600160a01b0316836001600160a01b031614156105765760405162461bcd60e51b815260206004820152602160248201527f4552433732313a20617070726f76616c20746f2063757272656e74206f776e656044820152603960f91b60648201526084015b60405180910390fd5b336001600160a01b0382161480610592575061059281336103bf565b6106045760405162461bcd60e51b815260206004820152603e60248201527f4552433732313a20617070726f76652063616c6c6572206973206e6f7420746f60448201527f6b656e206f776e6572206e6f7220617070726f76656420666f7220616c6c0000606482015260840161056d565b61060e8383610dde565b505050565b61061d3382610e4c565b6106395760405162461bcd60e51b815260040161056d90611c9e565b61060e838383610eca565b61060e83838360405180602001604052806000815250610add565b6000818152600260205260408120546001600160a01b0316806104395760405162461bcd60e51b8152602060048201526018602482015277115490cdcc8c4e881a5b9d985b1a59081d1bdad95b88125160421b604482015260640161056d565b60006001600160a01b0382166107295760405162461bcd60e51b815260206004820152602960248201527f4552433732313a2061646472657373207a65726f206973206e6f7420612076616044820152683634b21037bbb732b960b91b606482015260840161056d565b506001600160a01b031660009081526003602052604090205490565b60606001805461044e90611d5b565b61075f338383611066565b5050565b6060600061077060075490565b905060008060005b838110156107d35733600b6000610790846001611cec565b81526020810191909152604001600020600101546001600160a01b031614156107c1576107be600184611cec565b92505b806107cb81611d96565b915050610778565b5060008267ffffffffffffffff8111156107fd57634e487b7160e01b600052604160045260246000fd5b60405190808252806020026020018201604052801561084f57816020015b60408051608081018252600080825260208083018290529282018190526060820152825260001990920191018161081b5790505b50905060005b848110156109405733600b600061086d846001611cec565b81526020810191909152604001600020600101546001600160a01b0316141561092e576000600b816108a0846001611cec565b8152602080820192909252604090810160002081516080810183528154815260018201546001600160a01b031693810193909352600281015491830191909152600381015460ff1615156060830152845190925084908690811061091457634e487b7160e01b600052603260045260246000fd5b602090810291909101015261092a600185611cec565b9350505b8061093881611d96565b915050610855565b50949350505050565b6000610959600780546001019055565b600061096460075490565b90506109703382611135565b61097a818561114f565b61098481846111e9565b9392505050565b6060600061099860075490565b905060008167ffffffffffffffff8111156109c357634e487b7160e01b600052604160045260246000fd5b604051908082528060200260200182016040528015610a1557816020015b6040805160808101825260008082526020808301829052928201819052606082015282526000199092019101816109e15790505b5090506000805b83811015610ad4576000600b81610a34846001611cec565b8152602080820192909252604090810160002081516080810183528154815260018201546001600160a01b031693810193909352600281015491830191909152600381015460ff16151560608301528551909250859085908110610aa857634e487b7160e01b600052603260045260246000fd5b6020908102919091010152610abe600184611cec565b9250508080610acc90611d96565b915050610a1c565b50909392505050565b610ae73383610e4c565b610b035760405162461bcd60e51b815260040161056d90611c9e565b610b0f8484848461137a565b50505050565b6060610b2082610d7c565b60008281526006602052604081208054610b3990611d5b565b80601f0160208091040260200160405190810160405280929190818152602001828054610b6590611d5b565b8015610bb25780601f10610b8757610100808354040283529160200191610bb2565b820191906000526020600020905b815481529060010190602001808311610b9557829003601f168201915b505050505090506000610bd060408051602081019091526000815290565b9050805160001415610be3575092915050565b815115610c15578082604051602001610bfd929190611b5e565b60405160208183030381529060405292505050919050565b610c1e846113ad565b949350505050565b6000818152600b6020526040902060028101546001909101546001600160a01b0316348214610ccb5760405162461bcd60e51b8152602060048201526044602482018190527f506c6561736520706179207468652073656c6c696e67207072696365206f6620908201527f7468652070726f706572747920746f20636f6d706c657465207472616e7361636064820152633a34b7b760e11b608482015260a40161056d565b6000838152600b6020526040902060010180546001600160a01b03191633179055610cfa600880546001019055565b610d05303385610eca565b610d0f30846104f8565b600a546040516001600160a01b0383169180156108fc02916000818181858888f19350505050158015610d46573d6000803e3d6000fd5b506040516001600160a01b038216903480156108fc02916000818181858888f19350505050158015610b0f573d6000803e3d6000fd5b6000818152600260205260409020546001600160a01b0316610ddb5760405162461bcd60e51b8152602060048201526018602482015277115490cdcc8c4e881a5b9d985b1a59081d1bdad95b88125160421b604482015260640161056d565b50565b600081815260046020526040902080546001600160a01b0319166001600160a01b0384169081179091558190610e138261065f565b6001600160a01b03167f8c5be1e5ebec7d5bd14f71427d1e84f3dd0314c0f7b2291e5b200ac8c7c3b92560405160405180910390a45050565b600080610e588361065f565b9050806001600160a01b0316846001600160a01b03161480610e9f57506001600160a01b0380821660009081526005602090815260408083209388168352929052205460ff165b80610c1e5750836001600160a01b0316610eb8846104d1565b6001600160a01b031614949350505050565b826001600160a01b0316610edd8261065f565b6001600160a01b031614610f415760405162461bcd60e51b815260206004820152602560248201527f4552433732313a207472616e736665722066726f6d20696e636f72726563742060448201526437bbb732b960d91b606482015260840161056d565b6001600160a01b038216610fa35760405162461bcd60e51b8152602060048201526024808201527f4552433732313a207472616e7366657220746f20746865207a65726f206164646044820152637265737360e01b606482015260840161056d565b610fae600082610dde565b6001600160a01b0383166000908152600360205260408120805460019290610fd7908490611d18565b90915550506001600160a01b0382166000908152600360205260408120805460019290611005908490611cec565b909155505060008181526002602052604080822080546001600160a01b0319166001600160a01b0386811691821790925591518493918716917fddf252ad1be2c89b69c2b068fc378daa952ba7f163c4a11628f55a4df523b3ef91a4505050565b816001600160a01b0316836001600160a01b031614156110c85760405162461bcd60e51b815260206004820152601960248201527f4552433732313a20617070726f766520746f2063616c6c657200000000000000604482015260640161056d565b6001600160a01b03838116600081815260056020908152604080832094871680845294825291829020805460ff191686151590811790915591519182527f17307eab39ab6107e8899845ad3d59bd9653f200f220920489ca2b5937696c31910160405180910390a3505050565b61075f828260405180602001604052806000815250611420565b6000828152600260205260409020546001600160a01b03166111ca5760405162461bcd60e51b815260206004820152602e60248201527f45524337323155524953746f726167653a2055524920736574206f66206e6f6e60448201526d32bc34b9ba32b73a103a37b5b2b760911b606482015260840161056d565b6000828152600660209081526040909120825161060e928401906117bc565b600a5434146112515760405162461bcd60e51b815260206004820152602e60248201527f766572696679696e6720696620757365722069732073656e64696e672074686560448201526d20636f727265637420707269636560901b606482015260840161056d565b600081116112b25760405162461bcd60e51b815260206004820152602860248201527f766572696679696e6720746865207072696365206973206120706f73697469766044820152673290373ab6b132b960c11b606482015260840161056d565b6040805160808101825283815233602080830182815283850186815260016060860181815260008a8152600b9095529690932094518555905191840180546001600160a01b0319166001600160a01b039093169290921790915551600283015591516003909101805460ff1916911515919091179055611333903084610eca565b6040805133815260208101839052600181830152905183917fdc5a36f05131e6042d02a29c96ae854a664c5fe925cc146b8398c72ec68b1e1b919081900360600190a25050565b611385848484610eca565b61139184848484611453565b610b0f5760405162461bcd60e51b815260040161056d90611c4c565b60606113b882610d7c565b60006113cf60408051602081019091526000815290565b905060008151116113ef5760405180602001604052806000815250610984565b806113f984611560565b60405160200161140a929190611b5e565b6040516020818303038152906040529392505050565b61142a838361167a565b6114376000848484611453565b61060e5760405162461bcd60e51b815260040161056d90611c4c565b60006001600160a01b0384163b1561155557604051630a85bd0160e11b81526001600160a01b0385169063150b7a0290611497903390899088908890600401611b8d565b602060405180830381600087803b1580156114b157600080fd5b505af19250505080156114e1575060408051601f3d908101601f191682019092526114de91810190611a65565b60015b61153b573d80801561150f576040519150601f19603f3d011682016040523d82523d6000602084013e611514565b606091505b5080516115335760405162461bcd60e51b815260040161056d90611c4c565b805181602001fd5b6001600160e01b031916630a85bd0160e11b149050610c1e565b506001949350505050565b6060816115845750506040805180820190915260018152600360fc1b602082015290565b8160005b81156115ae578061159881611d96565b91506115a79050600a83611d04565b9150611588565b60008167ffffffffffffffff8111156115d757634e487b7160e01b600052604160045260246000fd5b6040519080825280601f01601f191660200182016040528015611601576020820181803683370190505b5090505b8415610c1e57611616600183611d18565b9150611623600a86611db1565b61162e906030611cec565b60f81b81838151811061165157634e487b7160e01b600052603260045260246000fd5b60200101906001600160f81b031916908160001a905350611673600a86611d04565b9450611605565b6001600160a01b0382166116d05760405162461bcd60e51b815260206004820181905260248201527f4552433732313a206d696e7420746f20746865207a65726f2061646472657373604482015260640161056d565b6000818152600260205260409020546001600160a01b0316156117355760405162461bcd60e51b815260206004820152601c60248201527f4552433732313a20746f6b656e20616c7265616479206d696e74656400000000604482015260640161056d565b6001600160a01b038216600090815260036020526040812080546001929061175e908490611cec565b909155505060008181526002602052604080822080546001600160a01b0319166001600160a01b03861690811790915590518392907fddf252ad1be2c89b69c2b068fc378daa952ba7f163c4a11628f55a4df523b3ef908290a45050565b8280546117c890611d5b565b90600052602060002090601f0160209004810192826117ea5760008555611830565b82601f1061180357805160ff1916838001178555611830565b82800160010185558215611830579182015b82811115611830578251825591602001919060010190611815565b5061183c929150611840565b5090565b5b8082111561183c5760008155600101611841565b600067ffffffffffffffff8084111561187057611870611df1565b604051601f8501601f19908116603f0116810190828211818310171561189857611898611df1565b816040528093508581528686860111156118b157600080fd5b858560208301376000602087830101525050509392505050565b80356001600160a01b03811681146118e257600080fd5b919050565b803580151581146118e257600080fd5b600060208284031215611908578081fd5b610984826118cb565b60008060408385031215611923578081fd5b61192c836118cb565b915061193a602084016118cb565b90509250929050565b600080600060608486031215611957578081fd5b611960846118cb565b925061196e602085016118cb565b9150604084013590509250925092565b60008060008060808587031215611993578081fd5b61199c856118cb565b93506119aa602086016118cb565b925060408501359150606085013567ffffffffffffffff8111156119cc578182fd5b8501601f810187136119dc578182fd5b6119eb87823560208401611855565b91505092959194509250565b60008060408385031215611a09578182fd5b611a12836118cb565b915061193a602084016118e7565b60008060408385031215611a32578182fd5b611a3b836118cb565b946020939093013593505050565b600060208284031215611a5a578081fd5b813561098481611e07565b600060208284031215611a76578081fd5b815161098481611e07565b60008060408385031215611a93578182fd5b823567ffffffffffffffff811115611aa9578283fd5b8301601f81018513611ab9578283fd5b611ac885823560208401611855565b95602094909401359450505050565b600060208284031215611ae8578081fd5b5035919050565b60008060408385031215611b01578182fd5b8235915061193a602084016118e7565b60008060408385031215611b23578182fd5b50508035926020909101359150565b60008151808452611b4a816020860160208601611d2f565b601f01601f19169290920160200192915050565b60008351611b70818460208801611d2f565b835190830190611b84818360208801611d2f565b01949350505050565b6001600160a01b0385811682528416602082015260408101839052608060608201819052600090611bc090830184611b32565b9695505050505050565b602080825282518282018190526000919060409081850190868401855b82811015611c2c57815180518552868101516001600160a01b031687860152858101518686015260609081015115159085015260809093019290850190600101611be7565b5091979650505050505050565b6020815260006109846020830184611b32565b60208082526032908201527f4552433732313a207472616e7366657220746f206e6f6e20455243373231526560408201527131b2b4bb32b91034b6b83632b6b2b73a32b960711b606082015260800190565b6020808252602e908201527f4552433732313a2063616c6c6572206973206e6f7420746f6b656e206f776e6560408201526d1c881b9bdc88185c1c1c9bdd995960921b606082015260800190565b60008219821115611cff57611cff611dc5565b500190565b600082611d1357611d13611ddb565b500490565b600082821015611d2a57611d2a611dc5565b500390565b60005b83811015611d4a578181015183820152602001611d32565b83811115610b0f5750506000910152565b600181811c90821680611d6f57607f821691505b60208210811415611d9057634e487b7160e01b600052602260045260246000fd5b50919050565b6000600019821415611daa57611daa611dc5565b5060010190565b600082611dc057611dc0611ddb565b500690565b634e487b7160e01b600052601160045260246000fd5b634e487b7160e01b600052601260045260246000fd5b634e487b7160e01b600052604160045260246000fd5b6001600160e01b031981168114610ddb57600080fdfea264697066735822122018aa757ece8e71d05ed28fd6446b962a89ecfcab2364a80719fd22b05bfad2f264736f6c63430008040033",
  "linkReferences": {},
  "deployedLinkReferences": {}
}