{
  "_format": "hh-sol-artifact-1",
  "contractName": "RealEstateDapp",
  "sourceName": "contracts/PropertiesSmartContract.sol",
  "abi": [
    {
      "inputs": [],
      "stateMutability": "nonpayable",
      "type": "constructor"
    },
    {
      "anonymous": false,
      "inputs": [
        {
          "indexed": true,
          "internalType": "address",
          "name": "owner",
          "type": "address"
        },
        {
          "indexed": true,
          "internalType": "address",
          "name": "approved",
          "type": "address"
        },
        {
          "indexed": true,
          "internalType": "uint256",
          "name": "tokenId",
          "type": "uint256"
        }
      ],
      "name": "Approval",
      "type": "event"
    },
    {
      "anonymous": false,
      "inputs": [
        {
          "indexed": true,
          "internalType": "address",
          "name": "owner",
          "type": "address"
        },
        {
          "indexed": true,
          "internalType": "address",
          "name": "operator",
          "type": "address"
        },
        {
          "indexed": false,
          "internalType": "bool",
          "name": "approved",
          "type": "bool"
        }
      ],
      "name": "ApprovalForAll",
      "type": "event"
    },
    {
      "anonymous": false,
      "inputs": [
        {
          "indexed": true,
          "internalType": "uint256",
          "name": "tokenId",
          "type": "uint256"
        },
        {
          "indexed": false,
          "internalType": "address",
          "name": "seller",
          "type": "address"
        },
        {
          "indexed": false,
          "internalType": "uint256",
          "name": "price",
          "type": "uint256"
        },
        {
          "indexed": false,
          "internalType": "bool",
          "name": "currentlyListed",
          "type": "bool"
        }
      ],
      "name": "TokenListedSuccess",
      "type": "event"
    },
    {
      "anonymous": false,
      "inputs": [
        {
          "indexed": true,
          "internalType": "address",
          "name": "from",
          "type": "address"
        },
        {
          "indexed": true,
          "internalType": "address",
          "name": "to",
          "type": "address"
        },
        {
          "indexed": true,
          "internalType": "uint256",
          "name": "tokenId",
          "type": "uint256"
        }
      ],
      "name": "Transfer",
      "type": "event"
    },
    {
      "inputs": [
        {
          "internalType": "address",
          "name": "to",
          "type": "address"
        },
        {
          "internalType": "uint256",
          "name": "tokenId",
          "type": "uint256"
        }
      ],
      "name": "approve",
      "outputs": [],
      "stateMutability": "nonpayable",
      "type": "function"
    },
    {
      "inputs": [
        {
          "internalType": "address",
          "name": "owner",
          "type": "address"
        }
      ],
      "name": "balanceOf",
      "outputs": [
        {
          "internalType": "uint256",
          "name": "",
          "type": "uint256"
        }
      ],
      "stateMutability": "view",
      "type": "function"
    },
    {
      "inputs": [
        {
          "internalType": "string",
          "name": "tokenURI",
          "type": "string"
        },
        {
          "internalType": "uint256",
          "name": "price",
          "type": "uint256"
        }
      ],
      "name": "createToken",
      "outputs": [
        {
          "internalType": "uint256",
          "name": "",
          "type": "uint256"
        }
      ],
      "stateMutability": "payable",
      "type": "function"
    },
    {
      "inputs": [
        {
          "internalType": "uint256",
          "name": "tokenId",
          "type": "uint256"
        }
      ],
      "name": "executeSale",
      "outputs": [],
      "stateMutability": "payable",
      "type": "function"
    },
    {
      "inputs": [],
      "name": "getAllListings",
      "outputs": [
        {
          "components": [
            {
              "internalType": "uint256",
              "name": "tokenId",
              "type": "uint256"
            },
            {
              "internalType": "address payable",
              "name": "seller",
              "type": "address"
            },
            {
              "internalType": "uint256",
              "name": "price",
              "type": "uint256"
            },
            {
              "internalType": "bool",
              "name": "currentlyListed",
              "type": "bool"
            }
          ],
          "internalType": "struct RealEstateDapp.ListedToken[]",
          "name": "",
          "type": "tuple[]"
        }
      ],
      "stateMutability": "view",
      "type": "function"
    },
    {
      "inputs": [
        {
          "internalType": "uint256",
          "name": "tokenId",
          "type": "uint256"
        }
      ],
      "name": "getApproved",
      "outputs": [
        {
          "internalType": "address",
          "name": "",
          "type": "address"
        }
      ],
      "stateMutability": "view",
      "type": "function"
    },
    {
      "inputs": [],
      "name": "getCurrentToken",
      "outputs": [
        {
          "internalType": "uint256",
          "name": "",
          "type": "uint256"
        }
      ],
      "stateMutability": "view",
      "type": "function"
    },
    {
      "inputs": [],
      "name": "getLatestIdToListedToken",
      "outputs": [
        {
          "components": [
            {
              "internalType": "uint256",
              "name": "tokenId",
              "type": "uint256"
            },
            {
              "internalType": "address payable",
              "name": "seller",
              "type": "address"
            },
            {
              "internalType": "uint256",
              "name": "price",
              "type": "uint256"
            },
            {
              "internalType": "bool",
              "name": "currentlyListed",
              "type": "bool"
            }
          ],
          "internalType": "struct RealEstateDapp.ListedToken",
          "name": "",
          "type": "tuple"
        }
      ],
      "stateMutability": "view",
      "type": "function"
    },
    {
      "inputs": [],
      "name": "getListPrice",
      "outputs": [
        {
          "internalType": "uint256",
          "name": "",
          "type": "uint256"
        }
      ],
      "stateMutability": "view",
      "type": "function"
    },
    {
      "inputs": [
        {
          "internalType": "uint256",
          "name": "tokenId",
          "type": "uint256"
        }
      ],
      "name": "getListedTokenForId",
      "outputs": [
        {
          "components": [
            {
              "internalType": "uint256",
              "name": "tokenId",
              "type": "uint256"
            },
            {
              "internalType": "address payable",
              "name": "seller",
              "type": "address"
            },
            {
              "internalType": "uint256",
              "name": "price",
              "type": "uint256"
            },
            {
              "internalType": "bool",
              "name": "currentlyListed",
              "type": "bool"
            }
          ],
          "internalType": "struct RealEstateDapp.ListedToken",
          "name": "",
          "type": "tuple"
        }
      ],
      "stateMutability": "view",
      "type": "function"
    },
    {
      "inputs": [],
      "name": "getMyInvestments",
      "outputs": [
        {
          "components": [
            {
              "internalType": "uint256",
              "name": "tokenId",
              "type": "uint256"
            },
            {
              "internalType": "address payable",
              "name": "seller",
              "type": "address"
            },
            {
              "internalType": "uint256",
              "name": "price",
              "type": "uint256"
            },
            {
              "internalType": "bool",
              "name": "currentlyListed",
              "type": "bool"
            }
          ],
          "internalType": "struct RealEstateDapp.ListedToken[]",
          "name": "",
          "type": "tuple[]"
        }
      ],
      "stateMutability": "view",
      "type": "function"
    },
    {
      "inputs": [
        {
          "internalType": "address",
          "name": "owner",
          "type": "address"
        },
        {
          "internalType": "address",
          "name": "operator",
          "type": "address"
        }
      ],
      "name": "isApprovedForAll",
      "outputs": [
        {
          "internalType": "bool",
          "name": "",
          "type": "bool"
        }
      ],
      "stateMutability": "view",
      "type": "function"
    },
    {
      "inputs": [],
      "name": "name",
      "outputs": [
        {
          "internalType": "string",
          "name": "",
          "type": "string"
        }
      ],
      "stateMutability": "view",
      "type": "function"
    },
    {
      "inputs": [
        {
          "internalType": "uint256",
          "name": "tokenId",
          "type": "uint256"
        }
      ],
      "name": "ownerOf",
      "outputs": [
        {
          "internalType": "address",
          "name": "",
          "type": "address"
        }
      ],
      "stateMutability": "view",
      "type": "function"
    },
    {
      "inputs": [
        {
          "internalType": "address",
          "name": "from",
          "type": "address"
        },
        {
          "internalType": "address",
          "name": "to",
          "type": "address"
        },
        {
          "internalType": "uint256",
          "name": "tokenId",
          "type": "uint256"
        }
      ],
      "name": "safeTransferFrom",
      "outputs": [],
      "stateMutability": "nonpayable",
      "type": "function"
    },
    {
      "inputs": [
        {
          "internalType": "address",
          "name": "from",
          "type": "address"
        },
        {
          "internalType": "address",
          "name": "to",
          "type": "address"
        },
        {
          "internalType": "uint256",
          "name": "tokenId",
          "type": "uint256"
        },
        {
          "internalType": "bytes",
          "name": "data",
          "type": "bytes"
        }
      ],
      "name": "safeTransferFrom",
      "outputs": [],
      "stateMutability": "nonpayable",
      "type": "function"
    },
    {
      "inputs": [
        {
          "internalType": "address",
          "name": "operator",
          "type": "address"
        },
        {
          "internalType": "bool",
          "name": "approved",
          "type": "bool"
        }
      ],
      "name": "setApprovalForAll",
      "outputs": [],
      "stateMutability": "nonpayable",
      "type": "function"
    },
    {
      "inputs": [
        {
          "internalType": "bytes4",
          "name": "interfaceId",
          "type": "bytes4"
        }
      ],
      "name": "supportsInterface",
      "outputs": [
        {
          "internalType": "bool",
          "name": "",
          "type": "bool"
        }
      ],
      "stateMutability": "view",
      "type": "function"
    },
    {
      "inputs": [],
      "name": "symbol",
      "outputs": [
        {
          "internalType": "string",
          "name": "",
          "type": "string"
        }
      ],
      "stateMutability": "view",
      "type": "function"
    },
    {
      "inputs": [
        {
          "internalType": "uint256",
          "name": "tokenId",
          "type": "uint256"
        }
      ],
      "name": "tokenURI",
      "outputs": [
        {
          "internalType": "string",
          "name": "",
          "type": "string"
        }
      ],
      "stateMutability": "view",
      "type": "function"
    },
    {
      "inputs": [
        {
          "internalType": "address",
          "name": "from",
          "type": "address"
        },
        {
          "internalType": "address",
          "name": "to",
          "type": "address"
        },
        {
          "internalType": "uint256",
          "name": "tokenId",
          "type": "uint256"
        }
      ],
      "name": "transferFrom",
      "outputs": [],
      "stateMutability": "nonpayable",
      "type": "function"
    },
    {
      "inputs": [
        {
          "internalType": "uint256",
          "name": "_id",
          "type": "uint256"
        },
        {
          "internalType": "uint256",
          "name": "_listPrice",
          "type": "uint256"
        }
      ],
      "name": "updateListPrice",
      "outputs": [
        {
          "internalType": "bool",
          "name": "",
          "type": "bool"
        }
      ],
      "stateMutability": "payable",
      "type": "function"
    }
  ],
  "bytecode": "0x6080604052600980546001600160a01b0319163317905566038d7ea4c68000600a553480156200002e57600080fd5b50604080518082018252600e81526d05265616c457374617465446170760941b60208083019182528351808501909452600684526505245444150560d41b9084015281519192916200008391600091620000b4565b50805162000099906001906020840190620000b4565b5050600980546001600160a01b031916331790555062000197565b828054620000c2906200015a565b90600052602060002090601f016020900481019282620000e6576000855562000131565b82601f106200010157805160ff191683800117855562000131565b8280016001018555821562000131579182015b828111156200013157825182559160200191906001019062000114565b506200013f92915062000143565b5090565b5b808211156200013f576000815560010162000144565b600181811c908216806200016f57607f821691505b602082108114156200019157634e487b7160e01b600052602260045260246000fd5b50919050565b611f6a80620001a76000396000f3fe6080604052600436106101355760003560e01c806372b3b620116100ab578063ae73ccec1161006f578063ae73ccec1461035a578063b88d4fde1461036f578063c87b56dd1461038f578063d1a88ae5146103af578063e985e9c5146103c4578063ef2d17461461040d57600080fd5b806372b3b620146102d25780638e264590146102e557806395d89b41146103125780639b1225c414610327578063a22cb4651461033a57600080fd5b806323b872dd116100fd57806323b872dd1461021157806342842e0e146102315780635fc2f095146102515780636352211e1461027357806368f1945f1461029357806370a08231146102b257600080fd5b806301ffc9a71461013a57806306fdde031461016f578063081812fc14610191578063095ea7b3146101c9578063144dcbbc146101eb575b600080fd5b34801561014657600080fd5b5061015a610155366004611b44565b610422565b60405190151581526020015b60405180910390f35b34801561017b57600080fd5b50610184610474565b6040516101669190611d1a565b34801561019d57600080fd5b506101b16101ac366004611bd2565b610506565b6040516001600160a01b039091168152602001610166565b3480156101d557600080fd5b506101e96101e4366004611b1b565b61052d565b005b61015a6101f9366004611bea565b6000918252600b602052604090912060020155600190565b34801561021d57600080fd5b506101e961022c366004611a2d565b610648565b34801561023d57600080fd5b506101e961024c366004611a2d565b610679565b34801561025d57600080fd5b50610266610694565b6040516101669190611ca3565b34801561027f57600080fd5b506101b161028e366004611bd2565b610860565b34801561029f57600080fd5b50600a545b604051908152602001610166565b3480156102be57600080fd5b506102a46102cd3660046119e1565b6108c0565b6102a46102e0366004611b7c565b610946565b3480156102f157600080fd5b50610305610300366004611bd2565b610988565b6040516101669190611dcd565b34801561031e57600080fd5b506101846109e3565b6101e9610335366004611bd2565b6109f2565b34801561034657600080fd5b506101e9610355366004611ae1565b610b52565b34801561036657600080fd5b50610266610b61565b34801561037b57600080fd5b506101e961038a366004611a68565b610c99565b34801561039b57600080fd5b506101846103aa366004611bd2565b610ccb565b3480156103bb57600080fd5b50610305610ddc565b3480156103d057600080fd5b5061015a6103df3660046119fb565b6001600160a01b03918216600090815260056020908152604080832093909416825291909152205460ff1690565b34801561041957600080fd5b506102a4610e44565b60006001600160e01b031982166380ac58cd60e01b148061045357506001600160e01b03198216635b5e139f60e01b145b8061046e57506301ffc9a760e01b6001600160e01b03198316145b92915050565b60606000805461048390611e72565b80601f01602080910402602001604051908101604052809291908181526020018280546104af90611e72565b80156104fc5780601f106104d1576101008083540402835291602001916104fc565b820191906000526020600020905b8154815290600101906020018083116104df57829003601f168201915b5050505050905090565b600061051182610e54565b506000908152600460205260409020546001600160a01b031690565b600061053882610860565b9050806001600160a01b0316836001600160a01b031614156105ab5760405162461bcd60e51b815260206004820152602160248201527f4552433732313a20617070726f76616c20746f2063757272656e74206f776e656044820152603960f91b60648201526084015b60405180910390fd5b336001600160a01b03821614806105c757506105c781336103df565b6106395760405162461bcd60e51b815260206004820152603e60248201527f4552433732313a20617070726f76652063616c6c6572206973206e6f7420746f60448201527f6b656e206f776e6572206e6f7220617070726f76656420666f7220616c6c000060648201526084016105a2565b6106438383610eb6565b505050565b6106523382610f24565b61066e5760405162461bcd60e51b81526004016105a290611d7f565b610643838383610fa2565b61064383838360405180602001604052806000815250610c99565b606060006106a160075490565b905060008060005b838110156107045733600b60006106c1846001611e03565b81526020810191909152604001600020600101546001600160a01b031614156106f2576106ef600184611e03565b92505b806106fc81611ead565b9150506106a9565b5060008267ffffffffffffffff81111561072e57634e487b7160e01b600052604160045260246000fd5b60405190808252806020026020018201604052801561076757816020015b610754611883565b81526020019060019003908161074c5790505b50905060005b848110156108575733600b6000610785846001611e03565b81526020810191909152604001600020600101546001600160a01b031614156108455760006107b5826001611e03565b6000818152600b602090815260409182902082516080810184528154815260018201546001600160a01b031692810192909252600281015492820192909252600382015460ff16151560608201528551929350909185908790811061082a57634e487b7160e01b600052603260045260246000fd5b6020908102919091010152610840600186611e03565b945050505b8061084f81611ead565b91505061076d565b50949350505050565b6000818152600260205260408120546001600160a01b03168061046e5760405162461bcd60e51b8152602060048201526018602482015277115490cdcc8c4e881a5b9d985b1a59081d1bdad95b88125160421b60448201526064016105a2565b60006001600160a01b03821661092a5760405162461bcd60e51b815260206004820152602960248201527f4552433732313a2061646472657373207a65726f206973206e6f7420612076616044820152683634b21037bbb732b960b91b60648201526084016105a2565b506001600160a01b031660009081526003602052604090205490565b6000610956600780546001019055565b600061096160075490565b905061096d338261113e565b6109778185611158565b61098181846111f2565b9392505050565b610990611883565b506000908152600b602090815260409182902082516080810184528154815260018201546001600160a01b03169281019290925260028101549282019290925260039091015460ff161515606082015290565b60606001805461048390611e72565b6000818152600b6020526040902060028101546001909101546001600160a01b0316348214610a8b576040805162461bcd60e51b81526020600482015260248101919091527f506c65617365207375626d6974207468652061736b696e67207072696365206960448201527f6e206f7264657220746f20636f6d706c6574652074686520707572636861736560648201526084016105a2565b6000838152600b6020526040902060038101805460ff191660019081179091550180546001600160a01b03191633179055610aca600880546001019055565b610ad5303385610fa2565b610adf308461052d565b600a546040516001600160a01b0383169180156108fc02916000818181858888f19350505050158015610b16573d6000803e3d6000fd5b506040516001600160a01b038216903480156108fc02916000818181858888f19350505050158015610b4c573d6000803e3d6000fd5b50505050565b610b5d338383611372565b5050565b60606000610b6e60075490565b905060008167ffffffffffffffff811115610b9957634e487b7160e01b600052604160045260246000fd5b604051908082528060200260200182016040528015610bd257816020015b610bbf611883565b815260200190600190039081610bb75790505b5090506000805b83811015610c90576000610bee826001611e03565b6000818152600b602090815260409182902082516080810184528154815260018201546001600160a01b031692810192909252600281015492820192909252600382015460ff161515606082015286519293509091869086908110610c6357634e487b7160e01b600052603260045260246000fd5b6020908102919091010152610c79600185611e03565b935050508080610c8890611ead565b915050610bd9565b50909392505050565b610ca33383610f24565b610cbf5760405162461bcd60e51b81526004016105a290611d7f565b610b4c84848484611441565b6060610cd682610e54565b60008281526006602052604081208054610cef90611e72565b80601f0160208091040260200160405190810160405280929190818152602001828054610d1b90611e72565b8015610d685780601f10610d3d57610100808354040283529160200191610d68565b820191906000526020600020905b815481529060010190602001808311610d4b57829003601f168201915b505050505090506000610d8660408051602081019091526000815290565b9050805160001415610d99575092915050565b815115610dcb578082604051602001610db3929190611c37565b60405160208183030381529060405292505050919050565b610dd484611474565b949350505050565b610de4611883565b6000610def60075490565b6000908152600b602090815260409182902082516080810184528154815260018201546001600160a01b03169281019290925260028101549282019290925260039091015460ff161515606082015292915050565b6000610e4f60075490565b905090565b6000818152600260205260409020546001600160a01b0316610eb35760405162461bcd60e51b8152602060048201526018602482015277115490cdcc8c4e881a5b9d985b1a59081d1bdad95b88125160421b60448201526064016105a2565b50565b600081815260046020526040902080546001600160a01b0319166001600160a01b0384169081179091558190610eeb82610860565b6001600160a01b03167f8c5be1e5ebec7d5bd14f71427d1e84f3dd0314c0f7b2291e5b200ac8c7c3b92560405160405180910390a45050565b600080610f3083610860565b9050806001600160a01b0316846001600160a01b03161480610f7757506001600160a01b0380821660009081526005602090815260408083209388168352929052205460ff165b80610dd45750836001600160a01b0316610f9084610506565b6001600160a01b031614949350505050565b826001600160a01b0316610fb582610860565b6001600160a01b0316146110195760405162461bcd60e51b815260206004820152602560248201527f4552433732313a207472616e736665722066726f6d20696e636f72726563742060448201526437bbb732b960d91b60648201526084016105a2565b6001600160a01b03821661107b5760405162461bcd60e51b8152602060048201526024808201527f4552433732313a207472616e7366657220746f20746865207a65726f206164646044820152637265737360e01b60648201526084016105a2565b611086600082610eb6565b6001600160a01b03831660009081526003602052604081208054600192906110af908490611e2f565b90915550506001600160a01b03821660009081526003602052604081208054600192906110dd908490611e03565b909155505060008181526002602052604080822080546001600160a01b0319166001600160a01b0386811691821790925591518493918716917fddf252ad1be2c89b69c2b068fc378daa952ba7f163c4a11628f55a4df523b3ef91a4505050565b610b5d8282604051806020016040528060008152506114e7565b6000828152600260205260409020546001600160a01b03166111d35760405162461bcd60e51b815260206004820152602e60248201527f45524337323155524953746f726167653a2055524920736574206f66206e6f6e60448201526d32bc34b9ba32b73a103a37b5b2b760911b60648201526084016105a2565b60008281526006602090815260409091208251610643928401906118b6565b600a54341461124f5760405162461bcd60e51b815260206004820152602360248201527f486f706566756c6c792073656e64696e672074686520636f727265637420707260448201526269636560e81b60648201526084016105a2565b600081116112aa5760405162461bcd60e51b815260206004820152602260248201527f4d616b652073757265207468652070726963652069736e2774206e6567617469604482015261766560f01b60648201526084016105a2565b6040805160808101825283815233602080830182815283850186815260016060860181815260008a8152600b9095529690932094518555905191840180546001600160a01b0319166001600160a01b039093169290921790915551600283015591516003909101805460ff191691151591909117905561132b903084610fa2565b6040805133815260208101839052600181830152905183917f0241486c3bd7b9341e96a4316b4e175972d913d43d4028b8cfcfe7bc93c96485919081900360600190a25050565b816001600160a01b0316836001600160a01b031614156113d45760405162461bcd60e51b815260206004820152601960248201527f4552433732313a20617070726f766520746f2063616c6c65720000000000000060448201526064016105a2565b6001600160a01b03838116600081815260056020908152604080832094871680845294825291829020805460ff191686151590811790915591519182527f17307eab39ab6107e8899845ad3d59bd9653f200f220920489ca2b5937696c31910160405180910390a3505050565b61144c848484610fa2565b6114588484848461151a565b610b4c5760405162461bcd60e51b81526004016105a290611d2d565b606061147f82610e54565b600061149660408051602081019091526000815290565b905060008151116114b65760405180602001604052806000815250610981565b806114c084611627565b6040516020016114d1929190611c37565b6040516020818303038152906040529392505050565b6114f18383611741565b6114fe600084848461151a565b6106435760405162461bcd60e51b81526004016105a290611d2d565b60006001600160a01b0384163b1561161c57604051630a85bd0160e11b81526001600160a01b0385169063150b7a029061155e903390899088908890600401611c66565b602060405180830381600087803b15801561157857600080fd5b505af19250505080156115a8575060408051601f3d908101601f191682019092526115a591810190611b60565b60015b611602573d8080156115d6576040519150601f19603f3d011682016040523d82523d6000602084013e6115db565b606091505b5080516115fa5760405162461bcd60e51b81526004016105a290611d2d565b805181602001fd5b6001600160e01b031916630a85bd0160e11b149050610dd4565b506001949350505050565b60608161164b5750506040805180820190915260018152600360fc1b602082015290565b8160005b8115611675578061165f81611ead565b915061166e9050600a83611e1b565b915061164f565b60008167ffffffffffffffff81111561169e57634e487b7160e01b600052604160045260246000fd5b6040519080825280601f01601f1916602001820160405280156116c8576020820181803683370190505b5090505b8415610dd4576116dd600183611e2f565b91506116ea600a86611ec8565b6116f5906030611e03565b60f81b81838151811061171857634e487b7160e01b600052603260045260246000fd5b60200101906001600160f81b031916908160001a90535061173a600a86611e1b565b94506116cc565b6001600160a01b0382166117975760405162461bcd60e51b815260206004820181905260248201527f4552433732313a206d696e7420746f20746865207a65726f206164647265737360448201526064016105a2565b6000818152600260205260409020546001600160a01b0316156117fc5760405162461bcd60e51b815260206004820152601c60248201527f4552433732313a20746f6b656e20616c7265616479206d696e7465640000000060448201526064016105a2565b6001600160a01b0382166000908152600360205260408120805460019290611825908490611e03565b909155505060008181526002602052604080822080546001600160a01b0319166001600160a01b03861690811790915590518392907fddf252ad1be2c89b69c2b068fc378daa952ba7f163c4a11628f55a4df523b3ef908290a45050565b60405180608001604052806000815260200160006001600160a01b03168152602001600081526020016000151581525090565b8280546118c290611e72565b90600052602060002090601f0160209004810192826118e4576000855561192a565b82601f106118fd57805160ff191683800117855561192a565b8280016001018555821561192a579182015b8281111561192a57825182559160200191906001019061190f565b5061193692915061193a565b5090565b5b80821115611936576000815560010161193b565b600067ffffffffffffffff8084111561196a5761196a611f08565b604051601f8501601f19908116603f0116810190828211818310171561199257611992611f08565b816040528093508581528686860111156119ab57600080fd5b858560208301376000602087830101525050509392505050565b80356001600160a01b03811681146119dc57600080fd5b919050565b6000602082840312156119f2578081fd5b610981826119c5565b60008060408385031215611a0d578081fd5b611a16836119c5565b9150611a24602084016119c5565b90509250929050565b600080600060608486031215611a41578081fd5b611a4a846119c5565b9250611a58602085016119c5565b9150604084013590509250925092565b60008060008060808587031215611a7d578081fd5b611a86856119c5565b9350611a94602086016119c5565b925060408501359150606085013567ffffffffffffffff811115611ab6578182fd5b8501601f81018713611ac6578182fd5b611ad58782356020840161194f565b91505092959194509250565b60008060408385031215611af3578182fd5b611afc836119c5565b915060208301358015158114611b10578182fd5b809150509250929050565b60008060408385031215611b2d578182fd5b611b36836119c5565b946020939093013593505050565b600060208284031215611b55578081fd5b813561098181611f1e565b600060208284031215611b71578081fd5b815161098181611f1e565b60008060408385031215611b8e578182fd5b823567ffffffffffffffff811115611ba4578283fd5b8301601f81018513611bb4578283fd5b611bc38582356020840161194f565b95602094909401359450505050565b600060208284031215611be3578081fd5b5035919050565b60008060408385031215611bfc578182fd5b50508035926020909101359150565b60008151808452611c23816020860160208601611e46565b601f01601f19169290920160200192915050565b60008351611c49818460208801611e46565b835190830190611c5d818360208801611e46565b01949350505050565b6001600160a01b0385811682528416602082015260408101839052608060608201819052600090611c9990830184611c0b565b9695505050505050565b6020808252825182820181905260009190848201906040850190845b81811015611d0e57611cfb838551805182526020808201516001600160a01b031690830152604080820151908301526060908101511515910152565b9284019260809290920191600101611cbf565b50909695505050505050565b6020815260006109816020830184611c0b565b60208082526032908201527f4552433732313a207472616e7366657220746f206e6f6e20455243373231526560408201527131b2b4bb32b91034b6b83632b6b2b73a32b960711b606082015260800190565b6020808252602e908201527f4552433732313a2063616c6c6572206973206e6f7420746f6b656e206f776e6560408201526d1c881b9bdc88185c1c1c9bdd995960921b606082015260800190565b815181526020808301516001600160a01b031690820152604080830151908201526060808301511515908201526080810161046e565b60008219821115611e1657611e16611edc565b500190565b600082611e2a57611e2a611ef2565b500490565b600082821015611e4157611e41611edc565b500390565b60005b83811015611e61578181015183820152602001611e49565b83811115610b4c5750506000910152565b600181811c90821680611e8657607f821691505b60208210811415611ea757634e487b7160e01b600052602260045260246000fd5b50919050565b6000600019821415611ec157611ec1611edc565b5060010190565b600082611ed757611ed7611ef2565b500690565b634e487b7160e01b600052601160045260246000fd5b634e487b7160e01b600052601260045260246000fd5b634e487b7160e01b600052604160045260246000fd5b6001600160e01b031981168114610eb357600080fdfea2646970667358221220c3220667894d8b9f1882d60f3e9bd1bf3ccd6c6acd5c4c95a59c6d1625cc596964736f6c63430008040033",
  "linkReferences": {},
  "deployedLinkReferences": {}
}