{
  "_format": "hh-sol-artifact-1",
  "contractName": "RealEstateDapp",
  "sourceName": "contracts/PropertiesSmartContract.sol",
  "abi": [
    {
      "inputs": [],
      "stateMutability": "nonpayable",
      "type": "constructor"
    },
    {
      "anonymous": false,
      "inputs": [
        {
          "indexed": true,
          "internalType": "address",
          "name": "owner",
          "type": "address"
        },
        {
          "indexed": true,
          "internalType": "address",
          "name": "approved",
          "type": "address"
        },
        {
          "indexed": true,
          "internalType": "uint256",
          "name": "tokenId",
          "type": "uint256"
        }
      ],
      "name": "Approval",
      "type": "event"
    },
    {
      "anonymous": false,
      "inputs": [
        {
          "indexed": true,
          "internalType": "address",
          "name": "owner",
          "type": "address"
        },
        {
          "indexed": true,
          "internalType": "address",
          "name": "operator",
          "type": "address"
        },
        {
          "indexed": false,
          "internalType": "bool",
          "name": "approved",
          "type": "bool"
        }
      ],
      "name": "ApprovalForAll",
      "type": "event"
    },
    {
      "anonymous": false,
      "inputs": [
        {
          "indexed": true,
          "internalType": "uint256",
          "name": "tokenId",
          "type": "uint256"
        },
        {
          "indexed": false,
          "internalType": "address",
          "name": "seller",
          "type": "address"
        },
        {
          "indexed": false,
          "internalType": "uint256",
          "name": "price",
          "type": "uint256"
        },
        {
          "indexed": false,
          "internalType": "bool",
          "name": "currentlyListed",
          "type": "bool"
        }
      ],
      "name": "ListingSuccess",
      "type": "event"
    },
    {
      "anonymous": false,
      "inputs": [
        {
          "indexed": true,
          "internalType": "address",
          "name": "from",
          "type": "address"
        },
        {
          "indexed": true,
          "internalType": "address",
          "name": "to",
          "type": "address"
        },
        {
          "indexed": true,
          "internalType": "uint256",
          "name": "tokenId",
          "type": "uint256"
        }
      ],
      "name": "Transfer",
      "type": "event"
    },
    {
      "inputs": [
        {
          "internalType": "address",
          "name": "to",
          "type": "address"
        },
        {
          "internalType": "uint256",
          "name": "tokenId",
          "type": "uint256"
        }
      ],
      "name": "approve",
      "outputs": [],
      "stateMutability": "nonpayable",
      "type": "function"
    },
    {
      "inputs": [
        {
          "internalType": "address",
          "name": "owner",
          "type": "address"
        }
      ],
      "name": "balanceOf",
      "outputs": [
        {
          "internalType": "uint256",
          "name": "",
          "type": "uint256"
        }
      ],
      "stateMutability": "view",
      "type": "function"
    },
    {
      "inputs": [
        {
          "internalType": "string",
          "name": "tokenURI",
          "type": "string"
        },
        {
          "internalType": "uint256",
          "name": "price",
          "type": "uint256"
        }
      ],
      "name": "createToken",
      "outputs": [
        {
          "internalType": "uint256",
          "name": "",
          "type": "uint256"
        }
      ],
      "stateMutability": "payable",
      "type": "function"
    },
    {
      "inputs": [
        {
          "internalType": "uint256",
          "name": "tokenId",
          "type": "uint256"
        }
      ],
      "name": "executeSale",
      "outputs": [],
      "stateMutability": "payable",
      "type": "function"
    },
    {
      "inputs": [],
      "name": "getAllListings",
      "outputs": [
        {
          "components": [
            {
              "internalType": "uint256",
              "name": "tokenId",
              "type": "uint256"
            },
            {
              "internalType": "address payable",
              "name": "seller",
              "type": "address"
            },
            {
              "internalType": "uint256",
              "name": "price",
              "type": "uint256"
            },
            {
              "internalType": "bool",
              "name": "currentlyListed",
              "type": "bool"
            }
          ],
          "internalType": "struct RealEstateDapp.PropListing[]",
          "name": "",
          "type": "tuple[]"
        }
      ],
      "stateMutability": "view",
      "type": "function"
    },
    {
      "inputs": [
        {
          "internalType": "uint256",
          "name": "tokenId",
          "type": "uint256"
        }
      ],
      "name": "getApproved",
      "outputs": [
        {
          "internalType": "address",
          "name": "",
          "type": "address"
        }
      ],
      "stateMutability": "view",
      "type": "function"
    },
    {
      "inputs": [],
      "name": "getCurrentToken",
      "outputs": [
        {
          "internalType": "uint256",
          "name": "",
          "type": "uint256"
        }
      ],
      "stateMutability": "view",
      "type": "function"
    },
    {
      "inputs": [],
      "name": "getLatestIdToListedToken",
      "outputs": [
        {
          "components": [
            {
              "internalType": "uint256",
              "name": "tokenId",
              "type": "uint256"
            },
            {
              "internalType": "address payable",
              "name": "seller",
              "type": "address"
            },
            {
              "internalType": "uint256",
              "name": "price",
              "type": "uint256"
            },
            {
              "internalType": "bool",
              "name": "currentlyListed",
              "type": "bool"
            }
          ],
          "internalType": "struct RealEstateDapp.PropListing",
          "name": "",
          "type": "tuple"
        }
      ],
      "stateMutability": "view",
      "type": "function"
    },
    {
      "inputs": [],
      "name": "getListPrice",
      "outputs": [
        {
          "internalType": "uint256",
          "name": "",
          "type": "uint256"
        }
      ],
      "stateMutability": "view",
      "type": "function"
    },
    {
      "inputs": [
        {
          "internalType": "uint256",
          "name": "id",
          "type": "uint256"
        }
      ],
      "name": "getListedTokenForId",
      "outputs": [
        {
          "components": [
            {
              "internalType": "uint256",
              "name": "tokenId",
              "type": "uint256"
            },
            {
              "internalType": "address payable",
              "name": "seller",
              "type": "address"
            },
            {
              "internalType": "uint256",
              "name": "price",
              "type": "uint256"
            },
            {
              "internalType": "bool",
              "name": "currentlyListed",
              "type": "bool"
            }
          ],
          "internalType": "struct RealEstateDapp.PropListing",
          "name": "",
          "type": "tuple"
        }
      ],
      "stateMutability": "view",
      "type": "function"
    },
    {
      "inputs": [],
      "name": "getMyInvestments",
      "outputs": [
        {
          "components": [
            {
              "internalType": "uint256",
              "name": "tokenId",
              "type": "uint256"
            },
            {
              "internalType": "address payable",
              "name": "seller",
              "type": "address"
            },
            {
              "internalType": "uint256",
              "name": "price",
              "type": "uint256"
            },
            {
              "internalType": "bool",
              "name": "currentlyListed",
              "type": "bool"
            }
          ],
          "internalType": "struct RealEstateDapp.PropListing[]",
          "name": "",
          "type": "tuple[]"
        }
      ],
      "stateMutability": "view",
      "type": "function"
    },
    {
      "inputs": [],
      "name": "getOwner",
      "outputs": [
        {
          "internalType": "address",
          "name": "",
          "type": "address"
        }
      ],
      "stateMutability": "view",
      "type": "function"
    },
    {
      "inputs": [
        {
          "internalType": "address",
          "name": "owner",
          "type": "address"
        },
        {
          "internalType": "address",
          "name": "operator",
          "type": "address"
        }
      ],
      "name": "isApprovedForAll",
      "outputs": [
        {
          "internalType": "bool",
          "name": "",
          "type": "bool"
        }
      ],
      "stateMutability": "view",
      "type": "function"
    },
    {
      "inputs": [],
      "name": "name",
      "outputs": [
        {
          "internalType": "string",
          "name": "",
          "type": "string"
        }
      ],
      "stateMutability": "view",
      "type": "function"
    },
    {
      "inputs": [
        {
          "internalType": "uint256",
          "name": "tokenId",
          "type": "uint256"
        }
      ],
      "name": "ownerOf",
      "outputs": [
        {
          "internalType": "address",
          "name": "",
          "type": "address"
        }
      ],
      "stateMutability": "view",
      "type": "function"
    },
    {
      "inputs": [
        {
          "internalType": "address",
          "name": "from",
          "type": "address"
        },
        {
          "internalType": "address",
          "name": "to",
          "type": "address"
        },
        {
          "internalType": "uint256",
          "name": "tokenId",
          "type": "uint256"
        }
      ],
      "name": "safeTransferFrom",
      "outputs": [],
      "stateMutability": "nonpayable",
      "type": "function"
    },
    {
      "inputs": [
        {
          "internalType": "address",
          "name": "from",
          "type": "address"
        },
        {
          "internalType": "address",
          "name": "to",
          "type": "address"
        },
        {
          "internalType": "uint256",
          "name": "tokenId",
          "type": "uint256"
        },
        {
          "internalType": "bytes",
          "name": "data",
          "type": "bytes"
        }
      ],
      "name": "safeTransferFrom",
      "outputs": [],
      "stateMutability": "nonpayable",
      "type": "function"
    },
    {
      "inputs": [
        {
          "internalType": "address",
          "name": "operator",
          "type": "address"
        },
        {
          "internalType": "bool",
          "name": "approved",
          "type": "bool"
        }
      ],
      "name": "setApprovalForAll",
      "outputs": [],
      "stateMutability": "nonpayable",
      "type": "function"
    },
    {
      "inputs": [
        {
          "internalType": "bytes4",
          "name": "interfaceId",
          "type": "bytes4"
        }
      ],
      "name": "supportsInterface",
      "outputs": [
        {
          "internalType": "bool",
          "name": "",
          "type": "bool"
        }
      ],
      "stateMutability": "view",
      "type": "function"
    },
    {
      "inputs": [],
      "name": "symbol",
      "outputs": [
        {
          "internalType": "string",
          "name": "",
          "type": "string"
        }
      ],
      "stateMutability": "view",
      "type": "function"
    },
    {
      "inputs": [
        {
          "internalType": "uint256",
          "name": "tokenId",
          "type": "uint256"
        }
      ],
      "name": "tokenURI",
      "outputs": [
        {
          "internalType": "string",
          "name": "",
          "type": "string"
        }
      ],
      "stateMutability": "view",
      "type": "function"
    },
    {
      "inputs": [
        {
          "internalType": "address",
          "name": "from",
          "type": "address"
        },
        {
          "internalType": "address",
          "name": "to",
          "type": "address"
        },
        {
          "internalType": "uint256",
          "name": "tokenId",
          "type": "uint256"
        }
      ],
      "name": "transferFrom",
      "outputs": [],
      "stateMutability": "nonpayable",
      "type": "function"
    },
    {
      "inputs": [
        {
          "internalType": "uint256",
          "name": "_id",
          "type": "uint256"
        },
        {
          "internalType": "bool",
          "name": "_currentlyListed",
          "type": "bool"
        }
      ],
      "name": "updateCurrentlyListed",
      "outputs": [
        {
          "internalType": "bool",
          "name": "",
          "type": "bool"
        }
      ],
      "stateMutability": "payable",
      "type": "function"
    },
    {
      "inputs": [
        {
          "internalType": "uint256",
          "name": "_id",
          "type": "uint256"
        },
        {
          "internalType": "uint256",
          "name": "_listPrice",
          "type": "uint256"
        }
      ],
      "name": "updateListPrice",
      "outputs": [
        {
          "internalType": "bool",
          "name": "",
          "type": "bool"
        }
      ],
      "stateMutability": "payable",
      "type": "function"
    }
  ],
  "bytecode": "0x6080604052600980546001600160a01b0319163317905566038d7ea4c68000600a553480156200002e57600080fd5b50604080518082018252600e81526d05265616c457374617465446170760941b60208083019182528351808501909452600684526505245444150560d41b9084015281519192916200008391600091620000b4565b50805162000099906001906020840190620000b4565b5050600980546001600160a01b031916331790555062000197565b828054620000c2906200015a565b90600052602060002090601f016020900481019282620000e6576000855562000131565b82601f106200010157805160ff191683800117855562000131565b8280016001018555821562000131579182015b828111156200013157825182559160200191906001019062000114565b506200013f92915062000143565b5090565b5b808211156200013f576000815560010162000144565b600181811c908216806200016f57607f821691505b602082108114156200019157634e487b7160e01b600052602260045260246000fd5b50919050565b61200080620001a76000396000f3fe60806040526004361061014b5760003560e01c806372b3b620116100b6578063ae73ccec1161006f578063ae73ccec146103c2578063b88d4fde146103d7578063c87b56dd146103f7578063d1a88ae514610417578063e985e9c51461042c578063ef2d17461461047557600080fd5b806372b3b6201461031c578063893d20e81461032f5780638e2645901461034d57806395d89b411461037a5780639b1225c41461038f578063a22cb465146103a257600080fd5b806342842e0e1161010857806342842e0e1461024757806359ce1df1146102675780635fc2f0951461029b5780636352211e146102bd57806368f1945f146102dd57806370a08231146102fc57600080fd5b806301ffc9a71461015057806306fdde0314610185578063081812fc146101a7578063095ea7b3146101df578063144dcbbc1461020157806323b872dd14610227575b600080fd5b34801561015c57600080fd5b5061017061016b366004611bb8565b61048a565b60405190151581526020015b60405180910390f35b34801561019157600080fd5b5061019a6104dc565b60405161017c9190611db0565b3480156101b357600080fd5b506101c76101c2366004611c46565b61056e565b6040516001600160a01b03909116815260200161017c565b3480156101eb57600080fd5b506101ff6101fa366004611b8f565b610595565b005b61017061020f366004611c80565b6000918252600b602052604090912060020155600190565b34801561023357600080fd5b506101ff610242366004611ab2565b6106b0565b34801561025357600080fd5b506101ff610262366004611ab2565b6106e1565b610170610275366004611c5e565b6000918252600b6020526040909120600301805460ff1916911515919091179055600190565b3480156102a757600080fd5b506102b06106fc565b60405161017c9190611d39565b3480156102c957600080fd5b506101c76102d8366004611c46565b6108c8565b3480156102e957600080fd5b50600a545b60405190815260200161017c565b34801561030857600080fd5b506102ee610317366004611a66565b610928565b6102ee61032a366004611bf0565b6109ae565b34801561033b57600080fd5b506009546001600160a01b03166101c7565b34801561035957600080fd5b5061036d610368366004611c46565b6109f0565b60405161017c9190611e63565b34801561038657600080fd5b5061019a610a4b565b6101ff61039d366004611c46565b610a5a565b3480156103ae57600080fd5b506101ff6103bd366004611b66565b610bb6565b3480156103ce57600080fd5b506102b0610bc5565b3480156103e357600080fd5b506101ff6103f2366004611aed565b610cfd565b34801561040357600080fd5b5061019a610412366004611c46565b610d2f565b34801561042357600080fd5b5061036d610e40565b34801561043857600080fd5b50610170610447366004611a80565b6001600160a01b03918216600090815260056020908152604080832093909416825291909152205460ff1690565b34801561048157600080fd5b506102ee610ea8565b60006001600160e01b031982166380ac58cd60e01b14806104bb57506001600160e01b03198216635b5e139f60e01b145b806104d657506301ffc9a760e01b6001600160e01b03198316145b92915050565b6060600080546104eb90611f08565b80601f016020809104026020016040519081016040528092919081815260200182805461051790611f08565b80156105645780601f1061053957610100808354040283529160200191610564565b820191906000526020600020905b81548152906001019060200180831161054757829003601f168201915b5050505050905090565b600061057982610eb8565b506000908152600460205260409020546001600160a01b031690565b60006105a0826108c8565b9050806001600160a01b0316836001600160a01b031614156106135760405162461bcd60e51b815260206004820152602160248201527f4552433732313a20617070726f76616c20746f2063757272656e74206f776e656044820152603960f91b60648201526084015b60405180910390fd5b336001600160a01b038216148061062f575061062f8133610447565b6106a15760405162461bcd60e51b815260206004820152603e60248201527f4552433732313a20617070726f76652063616c6c6572206973206e6f7420746f60448201527f6b656e206f776e6572206e6f7220617070726f76656420666f7220616c6c0000606482015260840161060a565b6106ab8383610f1a565b505050565b6106ba3382610f88565b6106d65760405162461bcd60e51b815260040161060a90611e15565b6106ab838383611006565b6106ab83838360405180602001604052806000815250610cfd565b6060600061070960075490565b905060008060005b8381101561076c5733600b6000610729846001611e99565b81526020810191909152604001600020600101546001600160a01b0316141561075a57610757600184611e99565b92505b8061076481611f43565b915050610711565b5060008267ffffffffffffffff81111561079657634e487b7160e01b600052604160045260246000fd5b6040519080825280602002602001820160405280156107cf57816020015b6107bc6118f8565b8152602001906001900390816107b45790505b50905060005b848110156108bf5733600b60006107ed846001611e99565b81526020810191909152604001600020600101546001600160a01b031614156108ad57600061081d826001611e99565b6000818152600b602090815260409182902082516080810184528154815260018201546001600160a01b031692810192909252600281015492820192909252600382015460ff16151560608201528551929350909185908790811061089257634e487b7160e01b600052603260045260246000fd5b60209081029190910101526108a8600186611e99565b945050505b806108b781611f43565b9150506107d5565b50949350505050565b6000818152600260205260408120546001600160a01b0316806104d65760405162461bcd60e51b8152602060048201526018602482015277115490cdcc8c4e881a5b9d985b1a59081d1bdad95b88125160421b604482015260640161060a565b60006001600160a01b0382166109925760405162461bcd60e51b815260206004820152602960248201527f4552433732313a2061646472657373207a65726f206973206e6f7420612076616044820152683634b21037bbb732b960b91b606482015260840161060a565b506001600160a01b031660009081526003602052604090205490565b60006109be600780546001019055565b60006109c960075490565b90506109d533826111a2565b6109df81856111bc565b6109e98184611256565b9392505050565b6109f86118f8565b506000908152600b602090815260409182902082516080810184528154815260018201546001600160a01b03169281019290925260028101549282019290925260039091015460ff161515606082015290565b6060600180546104eb90611f08565b6000818152600b6020526040902060028101546001909101546001600160a01b0316348214610aff5760405162461bcd60e51b8152602060048201526044602482018190527f506c6561736520706179207468652073656c6c696e67207072696365206f6620908201527f7468652070726f706572747920746f20636f6d706c657465207472616e7361636064820152633a34b7b760e11b608482015260a40161060a565b6000838152600b6020526040902060010180546001600160a01b03191633179055610b2e600880546001019055565b610b39303385611006565b610b433084610595565b600a546040516001600160a01b0383169180156108fc02916000818181858888f19350505050158015610b7a573d6000803e3d6000fd5b506040516001600160a01b038216903480156108fc02916000818181858888f19350505050158015610bb0573d6000803e3d6000fd5b50505050565b610bc13383836113e7565b5050565b60606000610bd260075490565b905060008167ffffffffffffffff811115610bfd57634e487b7160e01b600052604160045260246000fd5b604051908082528060200260200182016040528015610c3657816020015b610c236118f8565b815260200190600190039081610c1b5790505b5090506000805b83811015610cf4576000610c52826001611e99565b6000818152600b602090815260409182902082516080810184528154815260018201546001600160a01b031692810192909252600281015492820192909252600382015460ff161515606082015286519293509091869086908110610cc757634e487b7160e01b600052603260045260246000fd5b6020908102919091010152610cdd600185611e99565b935050508080610cec90611f43565b915050610c3d565b50909392505050565b610d073383610f88565b610d235760405162461bcd60e51b815260040161060a90611e15565b610bb0848484846114b6565b6060610d3a82610eb8565b60008281526006602052604081208054610d5390611f08565b80601f0160208091040260200160405190810160405280929190818152602001828054610d7f90611f08565b8015610dcc5780601f10610da157610100808354040283529160200191610dcc565b820191906000526020600020905b815481529060010190602001808311610daf57829003601f168201915b505050505090506000610dea60408051602081019091526000815290565b9050805160001415610dfd575092915050565b815115610e2f578082604051602001610e17929190611ccd565b60405160208183030381529060405292505050919050565b610e38846114e9565b949350505050565b610e486118f8565b6000610e5360075490565b6000908152600b602090815260409182902082516080810184528154815260018201546001600160a01b03169281019290925260028101549282019290925260039091015460ff161515606082015292915050565b6000610eb360075490565b905090565b6000818152600260205260409020546001600160a01b0316610f175760405162461bcd60e51b8152602060048201526018602482015277115490cdcc8c4e881a5b9d985b1a59081d1bdad95b88125160421b604482015260640161060a565b50565b600081815260046020526040902080546001600160a01b0319166001600160a01b0384169081179091558190610f4f826108c8565b6001600160a01b03167f8c5be1e5ebec7d5bd14f71427d1e84f3dd0314c0f7b2291e5b200ac8c7c3b92560405160405180910390a45050565b600080610f94836108c8565b9050806001600160a01b0316846001600160a01b03161480610fdb57506001600160a01b0380821660009081526005602090815260408083209388168352929052205460ff165b80610e385750836001600160a01b0316610ff48461056e565b6001600160a01b031614949350505050565b826001600160a01b0316611019826108c8565b6001600160a01b03161461107d5760405162461bcd60e51b815260206004820152602560248201527f4552433732313a207472616e736665722066726f6d20696e636f72726563742060448201526437bbb732b960d91b606482015260840161060a565b6001600160a01b0382166110df5760405162461bcd60e51b8152602060048201526024808201527f4552433732313a207472616e7366657220746f20746865207a65726f206164646044820152637265737360e01b606482015260840161060a565b6110ea600082610f1a565b6001600160a01b0383166000908152600360205260408120805460019290611113908490611ec5565b90915550506001600160a01b0382166000908152600360205260408120805460019290611141908490611e99565b909155505060008181526002602052604080822080546001600160a01b0319166001600160a01b0386811691821790925591518493918716917fddf252ad1be2c89b69c2b068fc378daa952ba7f163c4a11628f55a4df523b3ef91a4505050565b610bc182826040518060200160405280600081525061155c565b6000828152600260205260409020546001600160a01b03166112375760405162461bcd60e51b815260206004820152602e60248201527f45524337323155524953746f726167653a2055524920736574206f66206e6f6e60448201526d32bc34b9ba32b73a103a37b5b2b760911b606482015260840161060a565b600082815260066020908152604090912082516106ab9284019061192b565b600a5434146112be5760405162461bcd60e51b815260206004820152602e60248201527f766572696679696e6720696620757365722069732073656e64696e672074686560448201526d20636f727265637420707269636560901b606482015260840161060a565b6000811161131f5760405162461bcd60e51b815260206004820152602860248201527f766572696679696e6720746865207072696365206973206120706f73697469766044820152673290373ab6b132b960c11b606482015260840161060a565b6040805160808101825283815233602080830182815283850186815260016060860181815260008a8152600b9095529690932094518555905191840180546001600160a01b0319166001600160a01b039093169290921790915551600283015591516003909101805460ff19169115159190911790556113a0903084611006565b6040805133815260208101839052600181830152905183917fdc5a36f05131e6042d02a29c96ae854a664c5fe925cc146b8398c72ec68b1e1b919081900360600190a25050565b816001600160a01b0316836001600160a01b031614156114495760405162461bcd60e51b815260206004820152601960248201527f4552433732313a20617070726f766520746f2063616c6c657200000000000000604482015260640161060a565b6001600160a01b03838116600081815260056020908152604080832094871680845294825291829020805460ff191686151590811790915591519182527f17307eab39ab6107e8899845ad3d59bd9653f200f220920489ca2b5937696c31910160405180910390a3505050565b6114c1848484611006565b6114cd8484848461158f565b610bb05760405162461bcd60e51b815260040161060a90611dc3565b60606114f482610eb8565b600061150b60408051602081019091526000815290565b9050600081511161152b57604051806020016040528060008152506109e9565b806115358461169c565b604051602001611546929190611ccd565b6040516020818303038152906040529392505050565b61156683836117b6565b611573600084848461158f565b6106ab5760405162461bcd60e51b815260040161060a90611dc3565b60006001600160a01b0384163b1561169157604051630a85bd0160e11b81526001600160a01b0385169063150b7a02906115d3903390899088908890600401611cfc565b602060405180830381600087803b1580156115ed57600080fd5b505af192505050801561161d575060408051601f3d908101601f1916820190925261161a91810190611bd4565b60015b611677573d80801561164b576040519150601f19603f3d011682016040523d82523d6000602084013e611650565b606091505b50805161166f5760405162461bcd60e51b815260040161060a90611dc3565b805181602001fd5b6001600160e01b031916630a85bd0160e11b149050610e38565b506001949350505050565b6060816116c05750506040805180820190915260018152600360fc1b602082015290565b8160005b81156116ea57806116d481611f43565b91506116e39050600a83611eb1565b91506116c4565b60008167ffffffffffffffff81111561171357634e487b7160e01b600052604160045260246000fd5b6040519080825280601f01601f19166020018201604052801561173d576020820181803683370190505b5090505b8415610e3857611752600183611ec5565b915061175f600a86611f5e565b61176a906030611e99565b60f81b81838151811061178d57634e487b7160e01b600052603260045260246000fd5b60200101906001600160f81b031916908160001a9053506117af600a86611eb1565b9450611741565b6001600160a01b03821661180c5760405162461bcd60e51b815260206004820181905260248201527f4552433732313a206d696e7420746f20746865207a65726f2061646472657373604482015260640161060a565b6000818152600260205260409020546001600160a01b0316156118715760405162461bcd60e51b815260206004820152601c60248201527f4552433732313a20746f6b656e20616c7265616479206d696e74656400000000604482015260640161060a565b6001600160a01b038216600090815260036020526040812080546001929061189a908490611e99565b909155505060008181526002602052604080822080546001600160a01b0319166001600160a01b03861690811790915590518392907fddf252ad1be2c89b69c2b068fc378daa952ba7f163c4a11628f55a4df523b3ef908290a45050565b60405180608001604052806000815260200160006001600160a01b03168152602001600081526020016000151581525090565b82805461193790611f08565b90600052602060002090601f016020900481019282611959576000855561199f565b82601f1061197257805160ff191683800117855561199f565b8280016001018555821561199f579182015b8281111561199f578251825591602001919060010190611984565b506119ab9291506119af565b5090565b5b808211156119ab57600081556001016119b0565b600067ffffffffffffffff808411156119df576119df611f9e565b604051601f8501601f19908116603f01168101908282118183101715611a0757611a07611f9e565b81604052809350858152868686011115611a2057600080fd5b858560208301376000602087830101525050509392505050565b80356001600160a01b0381168114611a5157600080fd5b919050565b80358015158114611a5157600080fd5b600060208284031215611a77578081fd5b6109e982611a3a565b60008060408385031215611a92578081fd5b611a9b83611a3a565b9150611aa960208401611a3a565b90509250929050565b600080600060608486031215611ac6578081fd5b611acf84611a3a565b9250611add60208501611a3a565b9150604084013590509250925092565b60008060008060808587031215611b02578081fd5b611b0b85611a3a565b9350611b1960208601611a3a565b925060408501359150606085013567ffffffffffffffff811115611b3b578182fd5b8501601f81018713611b4b578182fd5b611b5a878235602084016119c4565b91505092959194509250565b60008060408385031215611b78578182fd5b611b8183611a3a565b9150611aa960208401611a56565b60008060408385031215611ba1578182fd5b611baa83611a3a565b946020939093013593505050565b600060208284031215611bc9578081fd5b81356109e981611fb4565b600060208284031215611be5578081fd5b81516109e981611fb4565b60008060408385031215611c02578182fd5b823567ffffffffffffffff811115611c18578283fd5b8301601f81018513611c28578283fd5b611c37858235602084016119c4565b95602094909401359450505050565b600060208284031215611c57578081fd5b5035919050565b60008060408385031215611c70578182fd5b82359150611aa960208401611a56565b60008060408385031215611c92578182fd5b50508035926020909101359150565b60008151808452611cb9816020860160208601611edc565b601f01601f19169290920160200192915050565b60008351611cdf818460208801611edc565b835190830190611cf3818360208801611edc565b01949350505050565b6001600160a01b0385811682528416602082015260408101839052608060608201819052600090611d2f90830184611ca1565b9695505050505050565b6020808252825182820181905260009190848201906040850190845b81811015611da457611d91838551805182526020808201516001600160a01b031690830152604080820151908301526060908101511515910152565b9284019260809290920191600101611d55565b50909695505050505050565b6020815260006109e96020830184611ca1565b60208082526032908201527f4552433732313a207472616e7366657220746f206e6f6e20455243373231526560408201527131b2b4bb32b91034b6b83632b6b2b73a32b960711b606082015260800190565b6020808252602e908201527f4552433732313a2063616c6c6572206973206e6f7420746f6b656e206f776e6560408201526d1c881b9bdc88185c1c1c9bdd995960921b606082015260800190565b815181526020808301516001600160a01b03169082015260408083015190820152606080830151151590820152608081016104d6565b60008219821115611eac57611eac611f72565b500190565b600082611ec057611ec0611f88565b500490565b600082821015611ed757611ed7611f72565b500390565b60005b83811015611ef7578181015183820152602001611edf565b83811115610bb05750506000910152565b600181811c90821680611f1c57607f821691505b60208210811415611f3d57634e487b7160e01b600052602260045260246000fd5b50919050565b6000600019821415611f5757611f57611f72565b5060010190565b600082611f6d57611f6d611f88565b500690565b634e487b7160e01b600052601160045260246000fd5b634e487b7160e01b600052601260045260246000fd5b634e487b7160e01b600052604160045260246000fd5b6001600160e01b031981168114610f1757600080fdfea26469706673582212207c19bf2b2b871d02545710e80399dbae0452806a34327d6d8dccdf7b08e1027364736f6c63430008040033",
  "linkReferences": {},
  "deployedLinkReferences": {}
}